:100000000C9435000C945D000C945D000C945D0024
:100010000C945D000C945D000C945D000C945D00EC
:100020000C945D000C945D000C945D000C945D00DC
:100030000C945D000C945D000C945D000C945D00CC
:100040000C9436050C945D000C94A6050C94800568
:100050000C945D000C945D000C945D000C945D00AC
:100060000C945D000C945D00780811241FBECFEF46
:10007000D8E0DEBFCDBF22E0ACE9B1E001C01D9207
:10008000AB34B207E1F711E0A0E0B1E0ECE0F7E15A
:1000900002C005900D92AC39B107D9F710E0C5E365
:1000A000D0E004C02197FE010E947509C433D10736
:1000B000C9F70E94D8050C94840B0C9400003FB73C
:1000C000F8948091A2019091A301A091A401B09114
:1000D000A50126B5A89B05C02F3F19F00196A11DCB
:1000E000B11D3FBFBA2FA92F982F8827BC01CD0182
:1000F000620F711D811D911D42E0660F771F881FE1
:10010000991F4A95D1F70895AF92BF92CF92DF928F
:10011000EF92FF920F931F93CF93DF936C017B01BC
:100120008B01040F151FEB015E01AE18BF08C0174D
:10013000D10759F06991D601ED91FC910190F081C0
:10014000E02DC6010995892B79F7C501DF91CF9183
:100150001F910F91FF90EF90DF90CF90BF90AF90E5
:100160000895FC01538D448D252F30E0842F90E0BD
:10017000821B930B541710F0CF96089501970895A2
:10018000FC01918D828D981761F0A28DAE0FBF2F6B
:10019000B11D5D968C91928D9F5F9F73928F90E0C1
:1001A00008958FEF9FEF08952FB7F8948091A601DF
:1001B0009091A701A091A801B091A9012FBF8093B0
:1001C000B2019093B301A093B401B093B5018AEA50
:1001D00091E00E94C00097FF26C02FB7F89480914D
:1001E000A6019091A701A091A801B091A9012FBFEC
:1001F0004091B2015091B3016091B4017091B50189
:10020000841B950BA60BB70B4091AE015091AF012B
:100210006091B0017091B10184179507A607B707E7
:10022000B0F28FEF9FEF0895FC01918D828D9817AA
:1002300031F0828DE80FF11D858D90E008958FEFEC
:100240009FEF0895FC01918D228D892F90E0805CB5
:100250009F4F821B91098F73992708958AEA91E035
:100260000E94220121E0892B09F420E0822F0895C9
:1002700080E090E0892B29F00E942E0181110C94DE
:1002800000000895FC01A48DA80FB92FB11DA35A39
:10029000BF4F2C91848D90E001968F739927848FA6
:1002A000A689B7892C93A089B1898C9183708064C9
:1002B0008C93938D848D981306C00288F389E02D6A
:1002C00080818F7D80830895EF92FF920F931F931B
:1002D000CF93DF93EC0181E0888F9B8D8C8D9813F9
:1002E0001AC0E889F989808185FF15C09FB7F89405
:1002F000EE89FF896083E889F98980818370806451
:1003000080839FBF81E090E0DF91CF911F910F919B
:10031000FF90EF900895F62E0B8D10E00F5F1F4FAA
:100320000F731127E02E8C8D8E110CC00FB607FCB9
:10033000FACFE889F989808185FFF5CFCE010E9447
:100340004201F1CFEB8DEC0FFD2FF11DE35AFF4F72
:10035000F0829FB7F8940B8FEA89FB8980818062D5
:10036000CFCFCF93DF93EC01888D8823B9F0AA8992
:10037000BB89E889F9898C9185FD03C0808186FD60
:100380000DC00FB607FCF7CF8C9185FFF2CF8081AF
:1003900085FFEDCFCE010E944201E9CFDF91CF91E1
:1003A000089581E091E030E020E0FC01E20FF31FCE
:1003B0004081483511F04F3461F42F5F3F4F2330B7
:1003C000310599F7039621E08A30920761F781E0C1
:1003D000089580E00895A1E0B1E02AE031E0FD0158
:1003E0009081981306C09181981303C09281981749
:1003F00061F19D9198130AC012969C9112979813DF
:1004000005C015969C9115979817F9F033962E17FD
:100410003F0731F790910101981308C090910501B1
:10042000981304C090910901981779F090910301F5
:10043000981309C090910501981305C091E020918F
:100440000701281719F090E001C091E0892F089565
:100450007F928F929F92AF92BF92CF92DF92EF9254
:10046000FF920F931F93CF93DF93B82E062F7A013D
:10047000862F0E94EB01CAE0D0E0CE19DF0981117E
:100480004DC088E5083509F48FE40E94EB01E701CF
:100490002A97811143C00E94D101D0E0C0E08111B0
:1004A0003DC0C8EED3E00B1102C0C8E1DCEF88E527
:1004B0003FE4732EB81611F028E5722E91E0892ED4
:1004C00091E0992E14E3EFEFEE1AFE0A8DEFA82EBD
:1004D000A10E6401F60180818835A1F08F3491F07E
:1004E000B082A701602F872D0E942802F601A0820A
:1004F0000B1105C0C817D9072CF4EC0103C08C17E9
:100500009D07DCF3FFEFCF1ADF0AA394A112E2CF1D
:100510001D5F83E0880E911C1D33C1F6CE01DF9173
:10052000CF911F910F91FF90EF90DF90CF90BF90F0
:10053000AF909F908F907F9008954F925F926F92AF
:100540007F928F929F92AF92BF92CF92DF92EF9263
:10055000FF920F931F93CF93DF93682E7B018FEF52
:100560009FEFFB019183808393838283F8E54FE4BF
:10057000542E6F1611F038E5532E91E0C92E91E0FC
:10058000D92E712CB12CA12C28E1822E2CEF922E89
:100590008601D0E0C0E081E3482E470CF80180815D
:1005A0008835B1F08F34A1F0608250E040E0662DD4
:1005B000852D0E9428022C2F240DF80120838816F7
:1005C000990634F4F701B182A082D383C2834C012F
:1005D00021960F5F1F4FC330D10501F7FFEFAF1A10
:1005E000BF0A83E0C80ED11CE3E07E0EF9E07F1263
:1005F000CFCFDF91CF911F910F91FF90EF90DF90C0
:10060000CF90BF90AF909F908F907F906F905F90B2
:100610004F900895262F019789309105A8F463E043
:1006200070E00E944D09FB01EE0FFF1FE60FF71F60
:10063000EF5FFE4FE80FF91F8081883529F08F3476
:1006400019F0208381E0089580E00895FC01019075
:100650000020E9F73197AF01481B590BBC018AEA2A
:1006600091E00C948400CF93DF930E942603EC0169
:1006700082E291E00E9426038C0F9D1FDF91CF91B3
:100680000895CF9388E50E94EB01C82F85E291E0A1
:10069000C1110FC08FE40E94EB01C82F8CE291E0E2
:1006A000C11107C00E94D101C82F882321F083E324
:1006B00091E00E9433038C2FCF910895CF93DF9365
:1006C000FC0144815581608171818AEA91E00E9438
:1006D0008400EC0182E291E00E9426038C0F9D1FB2
:1006E000DF91CF9108950F931F93CF93DF9388E30A
:1006F00091E00E943303C1E0D1E087E491E00E94E1
:10070000260310E000E0FE01E00FF11F60818AEA9D
:1007100091E00E94640186E491E00E9426030F5F4D
:100720001F4F0330110579F782E291E00E94260302
:1007300088E391E00E943303239681E0CA30D80712
:10074000E1F682E291E0DF91CF911F910F910C943D
:100750002603FB01DC018D919C91009761F0608183
:1007600071816115710539F0448155810E94760BC4
:1007700021E0892B09F020E0822F08950F931F9329
:10078000CF93DF93EC0188819981009759F02A81FA
:100790003B812617370730F081E0DF91CF911F9121
:1007A0000F9108958B016F5F7F4F0E94A00A009701
:1007B00059F0998388831B830A832C813D81232BE5
:1007C00059F7FC011082E8CF80E0E7CFEF92FF926B
:1007D0000F931F93CF93DF936115710541F480E070
:1007E000DF91CF911F910F91FF90EF9008954115E8
:1007F0005105B1F07B01EC010C811D81040F151F27
:10080000B8010E94BE03882351F3288139818C816D
:100810009D81B701820F931F0E946F0B1D830C8374
:1008200081E0DECFCF93DF93EC018881998100973F
:1008300011F00E94170A198218821D821C821B82E5
:100840001A82DF91CF910895EF92FF920F931F9339
:10085000CF93DF93EC017B018A01BA010E94BE03B2
:1008600081110BC0CE010E941204CE01DF91CF9105
:100870001F910F91FF90EF9008951D830C83B70196
:10088000888199810E946F0BF0CFCF93DF93EC01A9
:10089000FB018617970749F0608171816115710529
:1008A00041F0448155810E942404CE01DF91CF9113
:1008B00008950E941204F9CFFC0111821082138264
:1008C000128215821482FB0101900020E9F7319712
:1008D000AF01461B570B0C942404AF92BF92CF92EA
:1008E000DF92EF92FF920F931F93CF93DF937C01E0
:1008F0006B015A0189012417350720F48B2D59010A
:10090000042F182F64E271E0C7010E945C04D60135
:100910001496CD91DC91AC16BD0620F50C171D0781
:1009200008F4E801D601ED91FC911197EC0FFD1F41
:10093000108110826D917C916A0D7B1D611571058E
:10094000E9F0FB0101900020E9F73197AF01461B68
:10095000570BC7010E942404F60180819181C80FC2
:10096000D91F1883C701DF91CF911F910F91FF907D
:10097000EF90DF90CF90BF90AF900895C7010E9495
:100980001204EACFFC0180819181009711F00C9450
:10099000170A08950F931F93CF93DF93CDB7DEB758
:1009A00068970FB6F894DEBF0FBECDBFDC018D9106
:1009B0009C91119712962D913C911397FC01EE0F8B
:1009C000FF1FE80FF91FEF5FFE4FE20FF31F608379
:1009D0008D919C9111979C01220F331F280F391F75
:1009E00012968D919C91820F931F1C8A1B8A1E8ADE
:1009F0001D8A188E1F8A4AE08E010F5F1F4FB801B3
:100A000001960E94CC08F80101900020E9F7319787
:100A1000AF01401B510BB801CE0143960E94240444
:100A20006AE471E0C8010E945C044F89588D6B89AB
:100A30007C89C8010E94E603811103C0C8010E949D
:100A40001204C8010E945E03C8010E94C204CE01C4
:100A500043960E94C20468960FB6F894DEBF0FBE9C
:100A6000CDBFDF91CF911F910F9108951F920F92EB
:100A70000FB60F9211242F933F938F939F93AF93B1
:100A8000BF938091A6019091A701A091A801B09178
:100A9000A9013091A10123E0230F2D3758F50196CC
:100AA000A11DB11D2093A1018093A6019093A701E0
:100AB000A093A801B093A9018091A2019091A301F4
:100AC000A091A401B091A5010196A11DB11D809333
:100AD000A2019093A301A093A401B093A501BF919B
:100AE000AF919F918F913F912F910F900FBE0F90DB
:100AF0001F90189526E8230F0296A11DB11DD2CF95
:100B00001F920F920FB60F9211242F933F934F9382
:100B10005F936F937F938F939F93AF93BF93EF9365
:100B2000FF938AEA91E00E944201FF91EF91BF9109
:100B3000AF919F918F917F916F915F914F913F9175
:100B40002F910F900FBE0F901F9018951F920F922C
:100B50000FB60F9211242F938F939F93EF93FF93D0
:100B6000E091BA01F091BB018081E091C001F09168
:100B7000C10182FD1BC090818091C3018F5F8F7383
:100B80002091C401821741F0E091C301F0E0E655E5
:100B9000FE4F958F8093C301FF91EF919F918F91AD
:100BA0002F910F900FBE0F901F9018958081F4CF5A
:100BB000CF93DF93CDB7DEB762970FB6F894DEBF61
:100BC0000FBECDBF789484B5826084BD84B581604A
:100BD00084BD85B5826085BD85B5816085BD809108
:100BE0006E00816080936E00109281008091810080
:100BF0008260809381008091810081608093810078
:100C0000809180008160809380008091B100846039
:100C10008093B1008091B00081608093B00080919A
:100C20007A00846080937A0080917A008260809359
:100C30007A0080917A00816080937A0080917A00B6
:100C4000806880937A001092C100E091BA01F0911F
:100C5000BB0182E08083E091B601F091B701108280
:100C6000E091B801F091B9018FEC80831092C2013C
:100C7000E091BE01F091BF0186E08083E091BC016C
:100C8000F091BD01808180618083E091BC01F09191
:100C9000BD01808188608083E091BC01F091BD013D
:100CA000808180688083E091BC01F091BD018081EA
:100CB0008F7D808350E0E52E50E0F52E98E5D92E0B
:100CC00021E3C22E32E3332E43E3242E8AEA91E05D
:100CD0000E942201181619060CF0FEC164E271E0B0
:100CE000CE010D960E945C040E94D40009891A89E5
:100CF00097FD1CC08A309105C9F089831A820F5F65
:100D00001F4FB801CE010D960E94BE03882361F3E8
:100D10002D853E8589899A89BE016F5F7F4F820F3D
:100D2000931F0E946F0B1A8B098BDECF012B09F4E6
:100D30005AC167E571E08D859E850E94660B892BFF
:100D400009F051C1C09201013092020120920301C9
:100D500084E38093040185E38093050186E3809317
:100D6000060187E38093070188E38093080189E304
:100D70008093090181E080939E0181E691E00E94C9
:100D800033030E94730380919F019091A00101970A
:100D900009F05FC018861F821A8619861C861B867A
:100DA000BE01635F7F4FCE0107960E94450467E94D
:100DB00071E0CE0101960E945C042B853C858D81FB
:100DC0009E812817390758F0BE016F5F7F4FCE0113
:100DD00007960E94A90310919E01811101C010E0A5
:100DE000CE0101960E94C204112379F12B853C8526
:100DF00045E050E0BE01695F7F4FCE0101960E9441
:100E00006D0489819A81009709F44EC10E94A5085A
:100E10008B01CE0101960E94C20480919C0168E57D
:100E200080FD6FE4C8010E940A03882309F440C1D1
:100E30000E9473030E94410380919C0190919D0147
:100E4000019690939D0180939C01CE0107960E948C
:100E5000C20480919F019091A001029709F063C0A4
:100E600018861F821A8619861C861B86BE01635F40
:100E70007F4FCE0107960E94450467E971E0CE01DD
:100E800001960E945C042B853C858D819E812817EC
:100E9000390758F0BE016F5F7F4FCE0107960E9461
:100EA000A90310919E01811101C010E0CE010196AD
:100EB0000E94C204112399F12B853C8545E050E046
:100EC000BE01695F7F4FCE0101960E946D0489814A
:100ED0009A81412C512C3201009719F00E94A508EB
:100EE0002B01CE0101960E94C20468E5C2010E9456
:100EF0000A03882309F4E1C00E94410381110FC055
:100F0000BE016F5F7F4F8FE40E949D026FE4CE01B0
:100F100001960E94CA040E9473030E944103CE01FD
:100F200007960E94C20480919F019091A0010397AF
:100F300009F0CEC01A8219821C821B821E821D8279
:100F4000BE01635F7F4FCE0101960E9445048091F0
:100F50009E01882309F4B8C0D09200010E94410389
:100F60008111B2C010910001BE01695F7F4F812FD6
:100F70000E949D02612FCE0107960E94CA040E9422
:100F800073030E945F004B015C0184EF482E5524DF
:100F90005394612C712C0E945F00681979098A09A9
:100FA0009B09683E734081059105A8F321E0421A30
:100FB00051086108710888EE880E83E0981EA11C14
:100FC000B11C411451046104710429F70E944103CA
:100FD00081117AC080910001883509F073C08FE4D7
:100FE00080930001BBCF6DE671E0CE0101960E94B7
:100FF0005C0429893A898D819E8110E02817390780
:1010000040F0BE016F5F7F4FCE010D960E94A90395
:10101000182FCE0101960E94C204112309F4B3CE09
:1010200029893A8948E050E0BE01635F7F4FCE01D5
:1010300007960E946D048F8198850097A1F00E9409
:10104000A5087093A00160939F01615071096330FE
:10105000710568F086E791E00E943303CE010796A0
:101060000E94C20490CE60E070E0CB01EACF63E85A
:1010700071E0CE0101960E945C044B855C856F8116
:101080007885CE0101960E94E603811104C0CE014D
:1010900001960E941204CE0101960E945E03CE01C9
:1010A00001960E94C204DACF60E070E0CB01B0CEBE
:1010B00080E991E00E943303C8CE80E991E00E946C
:1010C00033032DCF88E58CCFCE0101960E94C20458
:1010D000CE010D960E94C204E114F10409F4F6CD8C
:1010E0000E942E01882309F4E9CD0E940000E6CD7C
:1010F000EAEAF1E01382128288EE93E0A0E0B0E029
:1011000084839583A683B78384E191E09183808370
:1011100085EC90E09587848784EC90E097878687BC
:1011200080EC90E0918B808B81EC90E0938B828BB4
:1011300082EC90E0958B848B86EC90E0978B868B8D
:10114000118E128E138E148E08951F93FC01992711
:101150008827BC01E89411911032E9F3193010F09E
:101160001E30C8F31B3251F01D3249F4689406C09A
:101170000E94D708610F711D811D911D119110539F
:101180001A30B0F33EF490958095709561957F4F3D
:101190008F4F9F4F1F910895BB274A3031F49923F9
:1011A00022F4BDE2909581959F4F0C94ED08592F44
:1011B000482F372F262F660F771F881F991F660F1E
:1011C000771F881F991F620F731F841F951F660F5B
:1011D000771F881F991F0895BB27FB015527AA2752
:1011E000880F991FAA1FA41710F0A41B83955051B4
:1011F000B9F7A05DAA3308F0A95DA193009779F72C
:10120000B111B1931192CB010C940609DC01FC01E0
:10121000672F71917723E1F7329704C07C916D932A
:1012200070836291AE17BF07C8F308952F923F9263
:101230004F925F926F927F928F929F92AF92BF92E6
:10124000CF92DF92EF92FF920F931F93CF93DF9392
:10125000CDB7DEB7CA1BDB0B0FB6F894DEBF0FBEEF
:10126000CDBF09942A88398848885F846E847D843C
:101270008C849B84AA84B984C884DF80EE80FD803E
:101280000C811B81AA81B981CE0FD11D0FB6F894B4
:10129000DEBF0FBECDBFED01089597FB072E16F4FC
:1012A000009407D077FD09D00E94610907FC05D0A2
:1012B0003EF4909581959F4F0895709561957F4F6D
:1012C0000895AA1BBB1B51E107C0AA1FBB1FA6178D
:1012D000B70710F0A61BB70B881F991F5A95A9F7DF
:1012E00080959095BC01CD010895EE0FFF1F0590EC
:1012F000F491E02D09940F931F93CF93DF938230E5
:10130000910510F482E090E0E0914902F0914A02E8
:1013100030E020E0B0E0A0E0309799F421153105ED
:1013200009F44AC0281B390B24303105D8F58A81CD
:101330009B816115710589F1FB0193838283FE0115
:1013400011C0408151810281138148175907E0F093
:101350004817590799F4109761F012960C93129759
:1013600013961C933296CF01DF91CF911F910F916D
:1013700008950093490210934A02F4CF21153105D4
:1013800051F04217530738F0A901DB019A01BD0162
:10139000DF01F801C1CFEF01F9CF90934A028093AA
:1013A0004902CDCFFE01E20FF31F819391932250AA
:1013B000310939832883D7CF2091470230914802E1
:1013C000232B41F420910C0130910D013093480200
:1013D0002093470220910A0130910B01211531051C
:1013E00041F42DB73EB740910E0150910F01241BDF
:1013F000350BE0914702F0914802E217F307A0F4A1
:101400002E1B3F0B2817390778F0AC014E5F5F4F5A
:101410002417350748F04E0F5F1F50934802409342
:101420004702819391939FCFF0E0E0E09CCFCF9370
:10143000DF930097E9F0FC01329713821282A091AA
:101440004902B0914A02ED0130E020E01097A1F48A
:1014500020813181820F931F2091470230914802F1
:101460002817390709F061C0F0934802E09347025A
:10147000DF91CF910895EA01CE17DF07E8F54A81A1
:101480005B819E0141155105B1F7E901FB83EA83B8
:1014900049915991C40FD51FEC17FD0761F4808164
:1014A00091810296840F951FE90199838883828137
:1014B00093819B838A83F0E0E0E012968D919C916A
:1014C00013970097B9F52D913C911197CD01029694
:1014D000820F931F20914702309148022817390745
:1014E00039F6309751F510924A0210924902B093A2
:1014F0004802A0934702BCCFD383C283408151816D
:10150000840F951FC817D90761F44E5F5F4F88811C
:101510009981480F591F518340838A819B8193830E
:1015200082832115310509F0B0CFF0934A02E09390
:1015300049029ECFFD01DC01C0CF13821282D7CFBA
:10154000B0E0A0E0E6EAFAE00C9418098C010097FC
:1015500051F4CB010E947B098C01C801CDB7DEB7E5
:10156000E0E10C943409FC01E60FF71F9C012250C6
:101570003109E217F30708F49DC0D901CD91DC9140
:101580001197C617D70798F0C530D10530F3CE01B3
:1015900004978617970708F3C61BD70B2297C193AA
:1015A000D1936D937C93CF010E94170AD6CF5B0134
:1015B000AC1ABD0A4C018C0E9D1EA0914902B0913F
:1015C0004A02512C412CF12CE12C109731F58091DD
:1015D0004702909148028815990509F05CC04616AB
:1015E000570608F058C080910A0190910B010097AE
:1015F00041F48DB79EB740910E0150910F01841BAD
:10160000950BE817F90708F055C0F0934802E093EE
:101610004702F90171836083A0CF8D919C9111974E
:1016200012966C90129713967C901397A815B90593
:1016300059F56C0142E0C40ED11CCA14DB0420F140
:10164000AC014A195B09DA011296159780F06282A3
:10165000738251834083D9016D937C93E114F1042B
:1016600071F0D7011396FC93EE93129776CF2296E2
:101670008C0F9D1FF90191838083F301EFCFF093CD
:101680004A02E093490269CF4816590608F42C0132
:101690007D01D3019ACFCB010E947B097C01009789
:1016A00049F0AE01B8010E945D0BC8010E94170A03
:1016B000870153CF10E000E050CFFB01DC0102C0F6
:1016C00001900D9241505040D8F70895FB01DC0184
:1016D0008D91019080190110D9F3990B0895FB01A8
:1016E000DC0101900D920020E1F70895FB01DC017F
:1016F0004150504030F08D910190801919F4002034
:0C170000B9F7881B990B0895F894FFCFEF
:10170C005831323334353637383900004B028000CB
:10171C000000000064018400B100B1012201C0008E
:10172C0014010D0A00582057696E73004F20576939
:10173C006E730044726177002D2D2D2D2D2D2D2DC6
:10174C002D2D2D2D2D00207C200053657276657279
:10175C004D6F76653A2000537461727447616D6504
:10176C000047616D655374617274656400536574F0
:10177C004D6F64652000496E7661696C43686F69D2
:10178C006365004D6F64652073657420746F200071
:0C179C00496E76616C69644D6F766500E3
:00000001FF
